:0A000000EF2F452F5C2F862FAA2F4B
:100DBC00AA340034AA34FF34F601F31FEC2EF209E6
:100DCC00F309F20A0319F30AF601F60AF11FF32EDE
:100DDC00F009F109F00A0319F10A700871040319FA
:100DEC00202FF501F50AF11B072F01300310F00D30
:100DFC00F10DFF3E031DFC2E0130F4007408F507C5
:100E0C00F92E71087302031D0D2F70087202031C5A
:100E1C00152F7008F2027108031CF303F302013062
:100E2C000310F10CF00CFF3E031D162F0130F502E0
:100E3C00031D072F76080319282FF209F309F20A6C
:100E4C000319F30A7308F1007208F000080083120A
:100E5C000313850107309F008316031305118511B9
:100E6C00FF30831203138600F030831603138600C1
:100E7C00831203130511831603138113E32F03103D
:100E8C00FD0D83120313861A7D147D08031DB32FE9
:100E9C00FF30F7007708FD00A101060E0139FA00BA
:100EAC00F7007708A200FB01FB0AB32F8312031390
:100EBC00861A7F2F0310FC0D061E652F7C147C0AEE
:100ECC00031D7C08031DB32F7C08F7007708FA007C
:100EDC007A08220603197A2F0130F7007708A10748
:100EEC007A08F7007708A200AA30F7007708FC0010
:100EFC00B32F05113230F7007708F9000230A62F16
:100F0C000130F9027908031DB32F0A30F0000030CC
:100F1C00F100831203132108F7000310770C013E34
:100F2C00F200003003180130F300E22670080F398C
:100F3C008312031386003230F7007708F900033070
:100F4C00F7007708FB00B32F0130F9027908031D75
:100F5C00B32F831203130515FB0101308312031306
:100F6C000310A30DA40DFF3E031DB62F85182314EB
:100F7C00230A0319240A0319C72F23082404031D69
:100F8C00DC2F2308F7007708F800780820060319EF
:100F9C00D82F780C031C8511031885157808F700D9
:100FAC007708A000AA30A300AA30A400C730F7002D
:100FBC00DF2FF70BDE2FE22FE32F7B0884000430AA
:100FCC0004020318B32F00308A000130040782009A
:100FDC00B32FDE26A300DF26A400E026FC00E126CA
:100FEC00FD00A001A101A201F801F901FA01FB0128
:040FFC0083012D2F11
:02400E0058FF59
:00000001FF
